:060000000A128A11122809
:10000800FE00030E83120313BC000408BD000A0897
:10001800BE007F08BF000A128A11DD2A0A128A115F
:10002800152883175730FD000530FE002C30FF00DF
:10003800103084000A128A11C9270A128A118316FD
:100048000317D701D801D901DA01DB01DC01DD0191
:10005800DE01DF01E001E101E20183120313C801BF
:10006800C901CA01CB01CC01CD01CE0183010A121D
:100078008A113E280A128A11E4240A128A110A12E5
:100088008A1144240A128A11903084001030831691
:100098000313B3000408B4004730B50033088400E4
:1000A80083170008B600B30A3408840036088000B5
:1000B800B40AB50B5228831203139F1864286528C5
:1000C80073281A3083160313B400F730B300B30B48
:1000D8006B28B40B6B287028831203139F1490307D
:1000E800C1000130C2000A128A11FB260A128A11C5
:1000F8000A128A11D8270A128A1183120313C5011A
:10010800C50A01300A128A114F270A128A112830AB
:1001180083120313C5008030C6000A128A11E02337
:100128000A128A1183120313C501C50A02300A1282
:100138008A114F270A128A114B3083160313A50020
:100148000030A6003030A700831603175A0883161C
:100158000313A90083160317590883160313A8006D
:100168000A128A1147210A128A114B30831203138B
:10017800C5000030C6000A128A11E0230A128A114B
:10018800093083120313C50001300A128A114F2760
:100198000A128A111F3083120313C5008030C6006B
:1001A8000A128A11E0230A128A11093083120313F2
:1001B800C50002300A128A114F270A128A11DB3051
:1001C80083160313A5000130A6003030A70083165C
:1001D8000317580883160313A90083160317570833
:1001E80083160313A8000A128A1147210A128A11DA
:1001F800DB3083120313C5000130C6000A128A11CE
:10020800E0230A128A118312031307180C290D29F7
:100218001B29071C102911290D29831603175708B4
:10022800013ED70058080318013E003ED80083124B
:1002380003138719202921292F29871D24292529D6
:100248002129831603175708FF3ED70058080318BB
:10025800013EFF3ED8008316031757088312031385
:100268008600063083160313B5001330B400AD3092
:10027800B300B30B3D29B40B3D29B50B3D295F28CD
:100288000A128A111228A83083160313AD00292AEE
:10029800253032060319512952296029250884007E
:1002A8008317261C8313320880000130A507031822
:1002B800A60A0030A607292AAE010130A707FF3099
:1002C800270784000A128A110A260A128A11B20024
:1002D800AA00AB012B08003A03197329292A2A0816
:1002E800003A0319392A643A03197E290D3A031989
:1002F8007E29292A2D08840083130008B000840A67
:100308000008B1000230FF007F08AD07B11F8D293A
:100318008E2997290330FF007F08AE04B009B10980
:10032800B00A0319B10AB201B20A3208AA002A07B0
:10033800013E84000A128A110A260A128A11AB00A9
:100348000A128A110A260A128A11AC002C083102F4
:10035800031DB0292B0830020318B329B429B52985
:10036800BF290130FF007F08B20705303206031DA0
:10037800BE29BF2999292E0803390319C429C5297B
:10038800D229250884008317261C83132D3080006A
:100398000130A5070318A60A0030A6073208AF00E7
:1003A800202A0A30A0000030A1002F08AA002A073E
:1003B800013E84000A128A110A260A128A1183123F
:1003C8000313C1000A128A110A260A128A11C200EE
:1003D80083160313310883120313C400831603130F
:1003E800300883120313C3000A128A1173250A12F4
:1003F8008A1183120313420883160313A30083127E
:100408000313410883160313A2000A128A11BF2698
:100418000A128A11831603132008303EB2002508F9
:1004280084008317261C8313320880000130A50737
:100438000318A60A0030A607FF30FF007F08AF07A1
:100448002F0A031D282A292AD5290130A707FF309A
:10045800270784000A128A110A260A128A11B20092
:100468003208031D382A392A4C29250884008317A5
:10047800261C83138001080083120313A901A31FFC
:10048800462A472A542AA009A109A209A309A00AB1
:100498000319A10A0319A20A0319A30AA901A90A9F
:1004A800A71F572A582A672AA409A509A609A70930
:1004B800A40A0319A50A0319A60A0319A70A0130F1
:1004C800FF007F08A9060030AD000030AC00003006
:1004D800AB000030AA0023082204210420040319D9
:1004E800762A772AC42AA801A80A872A0130FD009B
:1004F8000310A00DA10DA20DA30DFD0B7C2A013048
:10050800FF007F08A807A31F8A2A8B2A7A2A0130AE
:10051800FD000310AA0DAB0DAC0DAD0DFD0B8D2A22
:1005280023082702031DA22A22082602031DA22A45
:1005380021082502031DA22A20082402031CA52A3B
:10054800A62AB52A2008A4022108031C210FA50207
:100558002208031C220FA6022308031C230FA7024C
:100568002A1401300310A30CA20CA10CA00CFF3E0E
:10057800031DB62A0130A802031DC32AC42A8B2AE8
:1005880029080319C82AC92AD42AAA09AB09AC0917
:10059800AD09AA0A0319AB0A0319AC0A0319AD0A73
:1005A8002D08A3002C08A2002B08A1002A08A000EF
:1005B80008000C1FE02AE12A1C2B0130F000003053
:1005C800F1000A128A1171270A128A110A128A1175
:1005D800E5270A128A11710883120313C9007008EB
:1005E800C8004908AF004808AE000030B000B100AC
:1005F800FF30B2000030B3000030B400B500053061
:10060800B6000030B7000A128A1198240A128A111B
:10061800831203132F0883160317DA0083120313B8
:100628002E0883160317D900831203130C13642BA7
:100638008C1E1F2B202B642B1A08C000512B4B300B
:10064800F0000030F1000A128A1125270A128A11D7
:10065800642B013083160317D7070318D80A003014
:10066800D807642BFF3083160317D7070318D80A57
:10067800FF30D807642B0B30F0008030F1000A12ED
:100688008A1125270A128A110D30831203131A06BC
:10069800031D4F2B502B482B642B4008BA00BB017D
:1006A8003B08003A0319592B3F2B3A082B3A0319F8
:1006B8002D2B063A0319362B1C3A0319232B3F2BF3
:1006C800831203133F08FF003E088A003D08840098
:1006D8003C0E8300FE0E7E0E0900831203131F14C6
:1006E800033083120313C4009730C300C30B7A2B63
:1006F800C40B7A2B8312031341084204031D852B74
:10070800862B892BC3309F05D02B41034204031D40
:100718008E2B8F2B942B1F08C33904389F00D02BA6
:10072800023041064204031D9A2B9B2BA02B1F0865
:10073800C33908389F00D02B033041064204031DFB
:10074800A62BA72BAC2B1F08C3390C389F00D02B26
:10075800043041064204031DB22BB32BB82B1F08EB
:10076800C33910389F00D02B053041064204031DC1
:10077800BE2BBF2BC42B1F08C33914389F00D02BA6
:10078800063041064204031DCA2BCB2BD02B1F0871
:10079800C33918389F00D02B831603139F121F12DA
:1007A8000C17831203130C131F083F3940389F009E
:1007B800831603139F13080083160313A301A401D0
:1007C800192C831603132308831203134507831672
:1007D8000313A10083120313460883160313A00012
:1007E8000318A00AA31FF92BA003831603132008DC
:1007F800A200220883120313FF00831603132108A3
:100808008400831203130A128A1100260A128A111D
:100818000A128A11AB270A128A11013083160313B0
:10082800A3070318A40A0030A4072308831203139C
:10083800450783160313A100831203134608831682
:100848000313A0000318A00AA31F2B2CA0038316D0
:1008580003132008A200220883120313FF00831643
:10086800031321088400831203130A128A11002635
:100878000A128A11003A031D422C432CE52B08006A
:1008880000300A128A11EF270A128A1127308312C0
:100898000313C600F430C500C50B502CC60B502CF2
:1008A800000030300A128A118F270A128A110B3081
:1008B80083120313C6006130C500C50B612CC60B3B
:1008C800612C662C30300A128A118F270A128A117D
:1008D800413083120313C500C50B702C732C3030C4
:1008E8000A128A118F270A128A1138300A128A11BD
:1008F8008F270A128A1100300A128A118F270A12CA
:100908008A110C300A128A118F270A128A110030B4
:100918000A128A118F270A128A1106300A128A11BE
:100928008F270A128A110800831203133008320233
:10093800A0003108031C310A3302A100A201A11B47
:10094800A2032208A30030082E02F0003108031C7D
:10095800310A2F02F100F201F11BF2037208F300D1
:1009680034083602F4003508031C350A3702F5004E
:10097800F601F51BF6037608F7000A128A11B92565
:100988000A128A11730883120313A7007208A600BB
:100998007108A5007008A4000A128A1140220A12E0
:1009A8008A118312031334082007B8003508031886
:1009B800350A2107B9003908AF003808AE00080029
:1009C800033083160313850086018801FF308700F2
:1009D8008901831203138501860187018801890132
:1009E80003308316031788008901703083160313B8
:1009F8008F040F148B170B178B160B110C17831200
:100A080003130C13831603138C16831203138C120F
:100A18000130C1000030C2000A128A1171230A1283
:100A28008A11803083120313C1002530C2000A12D4
:100A38008A1143260A128A11803083120313C100D7
:100A48002530C2000A128A1182260A128A11080069
:100A580031342E3420344C346534653472342034C7
:100A680070346F34743465346E34633469346F347D
:100A78006D346534743472346F340D342B342E3441
:100A8800203449346E346334723465346D346534DB
:100A98006E3474346134723420347034753465348F
:100AA800723474346F34203442340D342D342E347F
:100AB8002034443465346334723465346D346534B9
:100AC8006E3474346134723420347034753465345F
:100AD800723474346F34203442340D340034831249
:100AE8000313C501C6014108420403197C2D7D2D5D
:100AF800B42DC701C70A8B2D01300310C10DC20DDB
:100B0800FF3E031D812D0130FF007F08C707C21F6C
:100B18008E2D8F2D802D01300310C50DC60DFF3E83
:100B2800031D902D42084402031D9C2D41084302D9
:100B3800031C9F2DA02DA72D4108C3024208031CAA
:100B4800C403C402451401300310C20CC10CFF3E9B
:100B5800031DA82D0130C702031DB32DB42D8F2D01
:100B68004608C2004508C10008000030FC000030FB
:100B7800FB000030FA000030F900701CC42DC52DB0
:100B8800DC2D7408F907750803110318013E0319D1
:100B9800CE2DFA07760803110318013E0319D52D47
:100BA800FB07770803110318013E0319DC2DFC0726
:100BB8000130F8000310F40DF50DF60DF70DF80BE4
:100BC800DE2D01300310F30CF20CF10CF00CFF3E9B
:100BD800031DE62D7308720471047004031DF52DBE
:100BE800F62DC12D7C08F3007B08F2007A08F1008D
:060BF8007908F00008007E
:100C0000FF1B0A2E83137F1883170008840A031919
:100C1000FF0A080006308A000408840A82070034AC
:100C2000013400340A34003464340034E8340334CA
:100C3000103427344F347034633469346F346E3475
:100C400020346E346F34203464346534663469344F
:100C50006E346934643461340D34003443346F3499
:100C60006E347434613464346F3472340034563406
:100C70006F346C34743461346A3465340034253430
:100C800064340D34003483160313181183160317CC
:100C90008711B03083120313410604300319420652
:100CA000031D532E542E5A2E6730831603139900BA
:100CB0009A01762E60304106093003194206031D61
:100CC000622E632E682E3330831603139900582E3C
:100CD00080304106253003194206031D702E712E07
:100CE000762E0C30831603139900582E8312981712
:100CF0008316031318128C16831203138C16181301
:100D0000181608008316031318118316031787118A
:100D1000B030831203134106043003194206031D49
:100D2000922E932E992E67308316031399009A0101
:100D3000B52E60304106093003194206031DA12E6D
:100D4000A22EA72E3330831603139900972E8030DE
:100D50004106253003194206031DAF2EB02EB52ED5
:100D60000C30831603139900972E8312981783165D
:100D7000031318129816831203130C12080083161B
:100D80000313200821040319C62EC72EF62EA40132
:100D9000A40AD52E01300310A00DA10DFF3E031DA6
:100DA000CB2E0130FF007F08A407A11FD82ED92E1B
:100DB000CA2E21082302031DDF2E20082202031C55
:100DC000E22EE32EE92E2008A2022108031CA30331
:100DD000A30201300310A10CA00CFF3E031DEA2E5C
:100DE0000130A402031DF52EF62ED92E2308A100F2
:100DF0002208A0000800142F83160313981C012F4B
:100E0000022FFC2E831203134208FF0041088400C6
:100E10000A128A1100260A128A1199000130C107AC
:100E20000318C20A0030C207831203134208FF00EE
:100E3000410884000A128A1100260A128A11003A17
:100E4000031D232F242FFC2E08003E2F831603138F
:100E5000981C2B2F2C2F262F710883120313FF00B1
:100E6000700884000A128A1100260A128A11990059
:100E70000130F0070318F10A0030F10771088312FE
:100E80000313FF00700884000A128A1100260A1258
:100E90008A11003A031D4D2F4E2F262F0800831272
:100EA0000313C6004603031D562F572F612F450815
:100EB0007F3EC70047080A128A118F270A128A113B
:100EC000702F02304606031D662F672F702F4508CE
:100ED000BF3EC70047080A128A118F270A128A11DB
:100EE00008007108803AFF0080307F02031D7A2FCE
:100EF0000E30700203187D2F7E2F8A2F7008F200AB
:100F0000F20DF20D831203131F087206C339720625
:100F10009F008E2FC330831203139F050800831296
:100F20000313C400091044080A128A11EF270A1299
:100F30008A118312031389140B3083120313C30025
:100F40006130C200C20BA22FC30BA22FA72F8312A6
:100F500003138910080083120313C4004408C3005C
:100F6000091443080A128A11EF270A128A11831200
:100F700003138914193083120313C200C20BBE2F4E
:100F8000C12F83120313891008007E088A007F088E
:100F900082000A128A11C5270A128A118000840A67
:100FA00004087D0603190034FF0A0319FE0AC92F3D
:100FB00000300A128A118F270A128A1101300A1290
:100FC0008A118F270A128A110800831203131E0840
:100FD000F200F3017208F0007308F10008008312B8
:0A0FE0000313C10041088800080057
:08400000FF3FFF3FFF3FFF3FC0
:04400E00D520FF3F7B
:00000001FF
